:100000000C948F050C94B7050C94B7050C94B705A8
:100010000C94B7050C94B7050C94B7050C94B70570
:100020000C94B7050C94B7050C94FE0F0C946D104E
:100030000C94B7050C94B7050C94B7050C94B70550
:100040000C94B7050C94B7050C94B7050C94B70540
:100050000C94B7050C94B7050C94B7050C949F123B
:100060000C94B7050C94B7050C94B7050C94B70520
:100070000C94B7050C94B7050C94B7050C94B70510
:100080000C94B7050C94B7050C94B7050C94B70500
:100090000C94B7050C94B7050C94B7050C94B705F0
:1000A0000C94B7050C94B7050C94B705000000003C
:1000B000003E5B4F5B3E3E6B4F6B3E1C3E7C3E1CEE
:1000C000183C7E3C181C577D571C1C5E7F5E1C0034
:1000D000183C1800FFE7C3E7FF0018241800FFE7EB
:1000E000DBE7FF30483A060E2629792926407F05AE
:1000F0000507407F05253F5A3CE73C5A7F3E1C1CC4
:1001000008081C1C3E7F14227F22145F5F005F5F83
:1001100006097F017F006689956A6060606060946F
:10012000A2FFA29408047E040810207E2010080874
:100130002A1C08081C2A08081E101010100C1E0C7F
:100140001E0C30383E3830060E3E0E060000000011
:100150000000005F00000007000700147F147F14F8
:10016000242A7F2A1223130864623649562050003D
:1001700008070300001C2241000041221C002A1C29
:100180007F1C2A08083E0808008070300008080814
:100190000808000060600020100804023E51494534
:1001A0003E00427F400072494949462141494D3352
:1001B0001814127F1027454545393C4A49493141B9
:1001C000211109073649494936464949291E000087
:1001D00014000000403400000008142241141414DC
:1001E0001414004122140802015909063E415D59C8
:1001F0004E7C1211127C7F494949363E41414122D1
:100200007F4141413E7F494949417F090909013EFA
:10021000414151737F0808087F00417F4100204021
:10022000413F017F081422417F404040407F021C33
:10023000027F7F0408107F3E4141413E7F0909094A
:10024000063E4151215E7F09192946264949493216
:1002500003017F01033F4040403F1F2040201F3FDC
:100260004038403F63140814630304780403615961
:10027000494D43007F4141410204081020004141A3
:10028000417F04020102044040404040000307084F
:100290000020545478407F2844443838444444284B
:1002A000384444287F385454541800087E090218F2
:1002B000A4A49C787F0804047800447D400020407A
:1002C000403D007F1028440000417F40007C0478BE
:1002D00004787C080404783844444438FC18242406
:1002E0001818242418FC7C08040408485454542486
:1002F00004043F44243C4040207C1C2040201C3C03
:100300004030403C44281028444C9090907C4464F9
:10031000544C44000836410000007700000041368C
:10032000080002010204023C2623263C1EA1A16112
:10033000123A4040207A3854545559215555794144
:100340002154547841215554784020545579400C1B
:100350001E527212395555555939545454593955FC
:100360005454580000457C410002457D420001453F
:100370007C40F0292429F0F0282528F07C545545AC
:10038000002054547C547C0A097F4932494949323F
:100390003248484832324A4848303A4141217A3A54
:1003A00042402078009DA0A07D39444444393D401E
:1003B00040403D3C24FF2424487E4943662B2FFCCB
:1003C0002F2BFF0929F620C0887E09032054547979
:1003D000410000447D413048484A32384040227A4A
:1003E000007A0A0A727D0D19317D2629292F2826C7
:1003F0002929292630484D402038080808080808CF
:100400000808382F10C8ACBA2F102834FA00007B27
:10041000000008142A142222142A1408950022002D
:1004200095AA005500AAAA55AA55AA000000FF00E7
:10043000101010FF00141414FF001010FF00FF1024
:1004400010F010F0141414FC001414F700FF000056
:10045000FF00FF1414F404FC141417101F10101FD5
:10046000101F1414141F00101010F0000000001FC3
:10047000101010101F10101010F010000000FF10CE
:100480001010101010101010FF10000000FF1400CA
:1004900000FF00FF00001F10170000FC04F41414FC
:1004A0001710171414F404F40000FF00F7141414C8
:1004B00014141414F700F7141414171410101F1048
:1004C0001F141414F4141010F010F000001F101F6B
:1004D0000000001F14000000FC140000F010F010D9
:1004E00010FF10FF141414FF141010101F00000050
:1004F00000F010FFFFFFFFFFF0F0F0F0F0FFFFFF54
:100500000000000000FFFF0F0F0F0F0F38444438AA
:10051000447C2A2A3E147E02020606027E027E02E5
:1005200063554941633844443C04407E201E200604
:10053000027E020299A5E7A5991C2A492A1C4C7241
:1005400001724C304A4D4D303048784830BC625AC8
:10055000463D3E494949007E0101017E2A2A2A2A58
:100560002A44445F444440514A444040444A514034
:100570000000FF0103E080FF000008086B6B0836F5
:1005800012362436060F090F060000181800000066
:100590001010003040FF0101001F01011E00191D55
:1005A0001712003C3C3C3C0000000000080B00021D
:1005B00002020000090400000102020000052400FC
:1005C000100105240101010424020605240600018E
:1005D0000705810310004009040100020A00000021
:1005E00007050202400000070583024000000403E3
:1005F000090412010002EF0201404123368000018C
:100600000102030141726475696E6F204C4C430016
:1006100041726475626F7900F0F89C8E8783878ED3
:100620009CF8F00000FEFF0303030303070EFCF831
:100630000000FEFF0303030303070EFCF80000FFA6
:10064000FF00000000000000FFFF0000FEFF8383AA
:10065000838383C7EE7C380000F8FC0E0703030396
:10066000070EFCF800003F7FE0C08080C0E07F3FC5
:10067000FFFF01010101010101FFFF0000FFFF0C6D
:100680000C0C0C1C3E77E3C100007FFFC0C0C0C053
:10069000C0E0703F1F00001F3F70E0C0C0C0E070AE
:1006A0003F1F00007FFFC1C1C1C1C1E3773E1C00F5
:1006B000001F3F70E0C0C0C0E0703F1F000000009E
:1006C0000001FFFF01000000D5F08D14A1C881CF0B
:1006D000D9F1AF20004D61696E204D656E750050F7
:1006E0006C617920416761696E00537461727400B6
:1006F0004B3A2000573A200020733A2000206B3AF2
:10070000200020793A2000783A2000506C61796509
:100710007220446965643A002D2D2D2D2D2D2D2D2F
:100720002D2D2D2D2D2D2D2D2D2D2D2D2D2D2D2DF9
:100730002D2D2D2D2D2D002500486974253A2000E2
:100740004B696C6C733A2000446561640A576176AA
:100750006573203A200076302E3300FFF1FFFFFF53
:10076000FC8019FFFFFFFCB9D9FFFFFFFCF9F9FF7F
:10077000FFFFFCF9F91F0FFFFCF9F8CE77FFFCF93A
:10078000F9CCF3FFFCF9F9CCF3FFFCF9F9CC03FF4A
:10079000FCF9F9CCFFFFFCF9F9CCFFFFFCF9F9CE2D
:1007A0007BFFFCF0F08707FFFCFFFFFFFFFFFCFF74
:1007B000FFFFFFFFFCFFFFFFFFFFFCFFFFFFFFFF4F
:1007C000FCFFFFFFFFFFFCFFFFFFFFC7FC861FFFD3
:1007D000FFE7FCCF3FFFFFE7FCCF3C389E2784CFED
:1007E000399C5CC734CF33CCF9E670C033CCF9E622
:1007F00070CF33CCF9E600CF33CCF9E67CCF33CCE5
:10080000F9E67CCF399CFCC738861C387E238400EF
:1008100000000000000F800FFFFFFFFF80000000BE
:1008200007800FFFFFFFFF8000000003800FFFFF26
:10083000FFFF800000C001003FF83FFFFF80000085
:10084000C001801F8007FFFF800001C000A00F00D3
:1008500003FFFE800001C000E00C00007FFF80006D
:1008600001C008E03007E00FFD000003C000C02019
:100870003FF807FB000003C000C0E0F80F03FE00D4
:100880000003C000C1E3C38381FF000003C001C1B6
:10089000FF0FF0407F000003C00380F03FF82067A7
:1008A000000003C0071AE0FFFC102F000003C00681
:1008B0001FF07FFF081C000003C0021FF67FFF83AC
:1008C00010000003C0001FFE3FFFC000000003C077
:1008D000001FFF3FFFE000000003C0000FFF0FFFFD
:1008E000E000000001C0020FFF87FFF001801E0141
:1008F000C00607FFC1FFE00780FF81C00603FFC4F9
:100900007F000E01FF81C00601FFE300019C03FF91
:1009100001C00410FFF18003B800FE03C00D18FFF2
:10092000F8E00730000807C00818FFFC3FC6700059
:10093000000FC0003E7FFF1FE06000001FC0003FAF
:100940007FFFC7E0C000001FC000273FFFFFE0801F
:1009500000003FC0007FBFFFFFE08000003FC000FD
:100960007EFFFFFFE00000003FC0007EFFFFFFE0D2
:100970000000007FC000FDBFFFFFC00000007FC07F
:1009800000FFB7F05080000000FFC001FF67807ECD
:100990000C000001FFC007FF4F00FF3C0000E3FF19
:1009A000C005FE4E003FFE0000FFFFC005FE0C002C
:1009B0003FF20001FFFFC005FE180467770001FF4A
:1009C000FFC0059F8002C4F50003FFFFC003BD8088
:1009D00003DDE50003FFFFC003FDA003DC440003CB
:1009E000FFFFC003FFA000FFD00007FFFFC001FF13
:1009F000A0003DB00007FFFFC000FF60000FF30044
:100A000007FFFFC001FF600003F3200FFFFFC000DE
:100A1000FFC0000037600FFFFFC0007F80000007AD
:100A2000640FFFFFC0003000000002641FFFFFC022
:100A3000000000000000443FFFFFC0000000000075
:100A400000047FFFFFC00000008000000FFFFFFFD9
:100A5000C00000018000000FFFFFFFC00000019CEC
:100A6000000007FFFFFFC00000031C000003FFFFA2
:100A7000FFC00000271C800001FFFFFFC000001F17
:100A800001C00001FFFFFFC000001D73C80000FF90
:100A9000FFFFC000001EFBD80000FFFFFFC00000EA
:100AA0003EFF980000FFFFFFC000000EFF98880087
:100AB000FFFFFFC010001FFF0008001FFFFFC0184E
:100AC0000017BF6010000FFFFFC010000BFFF00009
:100AD0000003FFFFC0000000000000000000000055
:100AE0000000000000000000000000000000000006
:100AF00000000000000000000000000000000000F6
:100B00000020793A2000537061776E696E67206526
:100B10006E656D79202D3E20783A200061131124F6
:100B20001FBECFEFDAE0DEBFCDBF11E0A0E0B1E045
:100B3000E2ECF2E402C005900D92AA36B107D9F7B3
:100B400027E0AAE6B1E001C01D92AD36B207E1F799
:100B500015E0CFE8D5E004C02197FE010E945421A2
:100B6000CE38D107C9F70E9492130C945F210C94E0
:100B7000000090916007982329F490915F079823D3
:100B800081E009F480E0089580E0E2E4F2E0811180
:100B90008FEF002481938193819381930394D1F704
:100BA000E6E5F7E0128A118A108A17860895E2E4D2
:100BB000F2E0A0E0B8E000800EBC8111012C11979A
:100BC000A0FDFDCF0192B9F70DB40895FC0180910D
:100BD0004102882311F13FB7F89482E08093E90045
:100BE0002091F200822F90E01816190614F481E08B
:100BF00090E0882339F0289844E6409340024091E1
:100C0000F1004083222339F02091F200211103C02A
:100C10002BE62093E8003FBF08958FEF9FEF0895E4
:100C20002FB7F89483E08093E9009091E800892F32
:100C3000807295FF04C09091F20080E4891B2FBF61
:100C400008958091380281110DC082E080933402B2
:100C500084E080933502109237021092360281E0D0
:100C60008093380284E392E008954091730150919B
:100C70007401209171013091720142175307B4F44D
:100C80009091E8009570E1F39091E80092FD19C011
:100C90008093F100809173019091740101968F739C
:100CA0009927892B19F48EEF8093E80080917301C6
:100CB000909174010196909374018093730181E087
:100CC000089580E00895DF92EF92FF920F931F93B3
:100CD000CF93DF93D82E8A01EB017B01E40EF51E42
:100CE000CE15DF0559F0D7FE12C0FE0184910E9497
:100CF000350621968111F4CF0FEF1FEFC801DF9168
:100D0000CF911F910F91FF90EF90DF900895888110
:100D1000EECF0F931F93CF93DF931F92CDB7DEB724
:100D200082E0898342E450E06CEA75E080E80E944A
:100D300063060E942106DC0112960D911C9101159B
:100D4000110589F0D801ED91FC910280F381E02D2D
:100D5000BE016F5F7F4FC801099597FD04C0F80180
:100D600000851185ECCF89810F90DF91CF911F9184
:100D70000F910895615030F02091F100FC01208323
:100D80000196F8CF289884E6809340020895DC010C
:100D9000ED91FC910190F081E02D0994EF92FF928A
:100DA0000F931F93CF93DF938C017B01D0E0C0E0C2
:100DB000F701EC0FFD1F6491662361F0D801ED91FE
:100DC000FC910190F081E02DC8010995892B11F06B
:100DD0002196EECFCE01DF91CF911F910F91FF9021
:100DE000EF900895AF92BF92CF92DF92EF92FF9271
:100DF0000F931F93CF93DF936C017B018B01040F43
:100E0000151FEB015E01AE18BF08C017D10759F0DE
:100E10006991D601ED91FC910190F081E02DC60120
:100E20000995892B79F7C501DF91CF911F910F911A
:100E3000FF90EF90DF90CF90BF90AF900895CF9349
:100E4000DF931F92CDB7DEB76983DC01ED91FC9192
:100E50000280F381E02D41E050E0BE016F5F7F4FE3
:100E600009950F90DF91CF91089583E08093E90079
:100E70008091F200882319F08AE38093E8000895B6
:100E80000E94100690E00895CF93DF931F92CDB794
:100E9000DEB7FC018485958597FD08C02FEF3FEFF5
:100EA000358724870F90DF91CF910895CE01019669
:100EB0000E94E605019719F4898190E0F3CF8FEF46
:100EC0009FEFF0CF0F931F93CF93DF931F92CDB778
:100ED000DEB78C01FC018485958597FF0BC0CE01A0
:100EE00001960E94E605019771F4898190E0F8016E
:100EF00095878487F801848595850F90DF91CF9140
:100F00001F910F9108958FEF9FEFF1CFFC01848522
:100F1000958597FD0BC09FB7F89482E08093E90018
:100F20008091F2009FBF90E0019608959FB7F894DA
:100F300082E08093E9008091F2009FBF90E00895E5
:100F40003FB7F89480916D0190916E01A0916F016F
:100F5000B091700126B5A89B05C02F3F19F00196EE
:100F6000A11DB11D3FBFBA2FA92F982F8827BC0103
:100F7000CD01620F711D811D911D42E0660F771F2B
:100F8000881F991F4A95D1F708958F929F92AF922B
:100F9000BF92CF92DF92EF92FF926B017C010E9491
:100FA000A0074B015C01C114D104E104F104B9F0C4
:100FB0000E94A007681979098A099B09683E734055
:100FC0008105910580F321E0C21AD108E108F108FA
:100FD00088EE880E83E0981EA11CB11CE4CFFF9020
:100FE000EF90DF90CF90BF90AF909F908F9008953B
:100FF0008F929F92AF92BF92CF92DF92EF92FF9229
:101000000F931F93CF93DF936C017B018A01809133
:101010000B01882309F45CC080914102882309F404
:1010200057C08091770180FF05C08091E000826009
:101030008093E000E801B12C8AEFA82E93E0892E7E
:101040002AE3922E209711F4BB20D9F10E941006BA
:1010500081110AC0AA94AA20D9F161E070E080E071
:1010600090E00E94C507EECF8C171D0611F00CF022
:101070008C2F9FB7F8948092E9002091E80025FD1D
:1010800002C09FBFDFCF282F30E0C21BD30BF70178
:10109000815020F041914093F100FACFE20EF31E0F
:1010A000BB2021F09092E800B12CEBCF8091E800BA
:1010B00085FDE7CF9092E800BB24B394209709F315
:1010C000F3CF5D9884E680937601101611063CF00C
:1010D00081E090E0F6019383828310E000E0C80194
:1010E000DF91CF911F910F91FF90EF90DF90CF9004
:1010F000BF90AF909F908F9008952D9A0895BC0156
:1011000090E080E00C94C5078FB18095807F669B4E
:1011100088601C9B8460089580389105B8F4603421
:101120007105A0F420E191E061FD94E060FD990F6C
:1011300062FD9295687F269FD0011124A80FAE5BB7
:10114000BD4F8C9140FF03C0892B8C9308959095DF
:101150008923FBCF2F923F925F926F927F928F9263
:101160009F92AF92BF92CF92DF92EF92FF920F9336
:101170001F93CF93DF9300D000D000D0CDB7DEB760
:101180007C018B01522E242F30E03E832D8381E0A1
:1011900090E05C01A21AB30AC90191958195910969
:1011A0009C01220F331F3A8329836D817E81600F5A
:1011B000711F452DC7010E948C08B8018D819E8149
:1011C000681B790B452DC7010E948C08452DB8017D
:1011D0008D819E818E0D9F1D0E948C08452DB8012A
:1011E000C7012D813E81821B930B0E948C08D12C5C
:1011F000C12C81E090E09C838B832D813E81C216BF
:10120000D3060CF05FC0B7FC0BC0215031093E8300
:101210002D8389819A8102969A838983A80EB91EAB
:101220009FEFC91AD90A2B813C812E5F3F4F3C8327
:101230002B83A20EB31E37016C0C7D1C452D8D80B7
:101240009E80800E911EB401C3010E948C0817017C
:101250002C183D08452DB401C1010E948C08452D74
:1012600048018D819E81881A990AB401C3010E94A8
:101270008C08452DB401C1010E948C084601800EE6
:10128000911E452DB4016D807E806E0C7F1CC301C4
:101290000E948C08452DB40117012D813E81221A30
:1012A000330AC1010E948C0848018C189D08452D05
:1012B000B401C3010E948C08452DB401C1010E94F4
:1012C0008C089BCF26960FB6F894DEBF0FBECDBF1D
:1012D000DF91CF911F910F91FF90EF90DF90CF9012
:1012E000BF90AF909F908F907F906F905F903F9056
:1012F0002F9008952F923F924F925F926F927F921C
:101300008F929F92AF92BF92CF92DF92EF92FF9215
:101310000F931F93CF93DF93CDB7DEB72A970FB606
:10132000F894DEBF0FBECDBF9A8389836A3061F522
:10133000DC0155968C91B8E08B9F90011124E981D6
:10134000FA8181899289820F931F928B818B108AF7
:10135000178681E090E02A960FB6F894DEBF0FBEA4
:10136000CDBFDF91CF911F910F91FF90EF90DF9054
:10137000CF90BF90AF909F908F907F906F905F9035
:101380004F903F902F9008956D3019F329813A8145
:101390003A872987D9011F96AD90BC90B0E8AB166B
:1013A000B1040CF07BC0F901C188D288F0E4CF16FB
:1013B000D1040CF073C0D90155966C90559745E057
:1013C0009501649E200D311D1124121613060CF098
:1013D00065C0262C312C910153E0220F331F5A9502
:1013E000E1F72C0D3D1D121613060CF057C0549654
:1013F000BC91BB83E985FA85F389FC83649FB001C6
:1014000011249B0124553F4F3A832983712CE98194
:10141000FA818491F5E07F1201C080E0460138E056
:10142000532E282F30E03E832D834C8080FF4B804D
:10143000411004C03B818C813817E1F010E000E0DE
:101440000615C0F4D501A00FB11FB887AF83F12CEA
:10145000E12CE61460F4B701680D791D442D8F81ED
:1014600098850E948C08BFEFEB1AFB0AF2CF0F5F42
:101470001F4FE6CF8D819E81959587955A94820C5A
:10148000931C5110CECF7394E981FA813196FA837F
:10149000E983A20CB31CF6E07F12B9CFA985BA8507
:1014A00055962C915597422F50E01F968D919C9107
:1014B000B6E02B9F800D911D1124E985FA85908B54
:1014C00087872689222309F444CF6AEF64039001B9
:1014D000659F300D112420583F4F281739070CF015
:1014E00038CFDF010190F081E02D0190F081E02DF7
:1014F0006AE0CD0109952DCF0895089590E080E030
:1015000008958F929F92AF92BF92CF92DF92EF9207
:10151000FF920F931F93CF93DF938C01962E6C0154
:1015200030E3E32EF12CB12CA12C88248394F80114
:10153000C085D0E0AC16BD060CF040C0F60122819B
:101540003AEF3203E0011124CE0185589F4F90936A
:10155000660780936507F0926807E0926707992015
:1015600021F01092690780926A07F601608171810B
:1015700086E597E00E94CE068092690710926A077E
:1015800080916A0190916B018A159B0569F4B701FE
:101590006D5F7F4FCE018A589F4F20E0911001C0B0
:1015A00021E041E00E94AA08FFEFAF1ABF0A34E031
:1015B000C30ED11C88E0E80EF11CB9CF80E80E9470
:1015C000B905882361F080916A0190916B010197C0
:1015D00018161906DCF590936B0180936A0180E17F
:1015E0000E94B905882369F080916A0190916B018E
:1015F000019621978C179D0774F590936B0180934A
:101600006A0184E00E94B905882399F080916A01FB
:1016100090916B019927880F991F880F991F080FC8
:10162000191FF80183818093330210926B0110928D
:101630006A01DF91CF911F910F91FF90EF90DF90A2
:10164000CF90BF90AF909F908F90089510926B01B4
:1016500010926A01C4CFD0936B01C0936A01D1CFBD
:101660008F929F92AF92BF92CF92DF92EF92FF92B2
:101670006B017C01CA01B9010E949A1F4B015C01F8
:10168000C701B6010E949A1F6B017C01C814D904DE
:10169000EA04FB0474F48C189D08AE08BF080E948D
:1016A000E51DA50194010E94531EC60ED71EE81E1B
:1016B000F91EC701B6010E94D21F20E030E048ECBD
:1016C00052E40E94281FFF90EF90DF90CF90BF90D0
:1016D000AF909F908F9008952F923F924F925F927C
:1016E0006F927F928F929F92AF92BF92CF92DF9232
:1016F000EF92FF920F931F93CF93DF93CDB7DEB797
:10170000E7970FB6F894DEBF0FBECDBF5B017A013D
:1017100069011EAB0DABBC01990F880B990B0E94A0
:10172000D21F6DA77EA78FA798ABB501BB0C880B06
:10173000990B0E94D21F69AB7AAB8BAB9CAB033089
:10174000110509F44BC0B701FF0C880B990B0E94DF
:10175000D21F7B018C01B601DD0C880B990B0E9416
:10176000D21F5B016C018DA991E0833009F4FDC0AB
:10177000823009F0F9C08AE0FE017B96DF01682E15
:101780001D926A94E9F77297DF011D928A95E9F735
:1017900020E030E0A901B701C8010E94822018169C
:1017A0004CF020E030E0A901B701C8010E94231FDE
:1017B00087FF20C120E030E0A901B501C6010E94E9
:1017C000231F882311F1B501C601EDA2FEA20FA3CC
:1017D00018A7150126013701480159C0F7FE03C0BB
:1017E0002FEFE21AF20AF594E794B701FF0C880B89
:1017F000990B0E94D21F7B018C01D7FE03C03FEFE3
:10180000C31AD30AD594C794A6CF20E030E040E2B3
:1018100052E460E070E080E292EC0E94300B9701AD
:10182000A8010E94B71E3B014C0120E030E040E2DD
:1018300052E460E070E080E292EC0E94300B97018D
:10184000A8010E94B71E6DA37EA38FA398A720E0D6
:1018500030E046EB52E460E070E080EA91E40E9400
:10186000300B9501A6010E94B71E1B012C0120E040
:1018700030E046EB52E460E070E080EA91E40E94E0
:10188000300B9B01AC01B501C6010E94B61E209130
:101890001E022FAB2830A9F12DA53EA54FA558A9B2
:1018A0002B8B3C8B4D8B5E8B29A93AA94BA95CA94C
:1018B0002F8B388F498F5A8F69A67AA68BA69CA644
:1018C00069A47AA48BA49CA46B8E7C8E8D8E9E8E34
:1018D000310142016F8E78A289A29AA232E03BA325
:1018E00032E17FA8379DD0011124A257BE4FFE01DF
:1018F000739601900D923A95E1F72FA92F5F2093EF
:101900001E0220911E02283079F16DA47EA48FA4BE
:1019100098A869827A828B829C8269A87AA88BA80F
:101920009CA86D827E828F8298864DA05EA06FA05B
:1019300078A449865A866B867C862B013C014D86AD
:101940005E866F86788A82E0898B82E1829FD001F1
:101950001124A257BE4FFE01319601900D928A9537
:10196000E1F72F5F20931E0290E080911E028830E5
:1019700041F122E1829FF0011124E257FE4F6DA454
:101980007EA48FA498A8608271828282938269A8C3
:101990007AA88BA89CA86482758286829782A70108
:1019A000B8014087518762877387A501B6014487D4
:1019B0005587668777877DA8708A918B8F5F809324
:1019C0001E02E7960FB6F894DEBF0FBECDBFDF91C3
:1019D000CF911F910F91FF90EF90DF90CF90BF902C
:1019E000AF909F908F907F906F905F904F903F90BF
:1019F0002F90089520E030E0A901B701C8010E94AE
:101A0000231F8111E0CE20E030E0A901B501C6011D
:101A10000E94231F87FD0AC020E030E0A901B50124
:101A2000C6010E94822018160CF0CDCE20E030E0D6
:101A300046EB52E460E070E080EA91E40E94300BF3
:101A40009701A8010E94B71E3B014C0120E030E045
:101A500046EB52E460E070E080EA91E40E94300BD3
:101A60009B01AC01B701C8010E94B61E6DA37EA305
:101A70008FA398A720E030E040E252E460E070E0FD
:101A800080E292EC0E94300B9501A6010E94B71EE5
:101A90001B012C0120E030E040E252E460E070E005
:101AA00080E292EC0E94300B9B01AC01B501C601B3
:101AB0000E94B71EECCE0C943D1E0E945A21FB01E1
:101AC00001900020E9F73197AF01461B570BDC016D
:101AD000ED91FC910280F381E02D09948F929F9209
:101AE000AF92BF92EF92FF920F931F93CF93DF932A
:101AF000CDB7DEB7A1970FB6F894DEBF0FBECDBF4E
:101B00007C01FA01CB0119A2223008F42AE08E01EF
:101B10000F5D1F4F822E912CB12CA12CBF01A5016E
:101B200094010E94851EF901CA016A300CF5605DBE
:101B3000D8016E938D01232B242B252B79F790E070
:101B400080E0109721F0BD01C7010E945F0DA196B2
:101B50000FB6F894DEBF0FBECDBFDF91CF911F91BE
:101B60000F91FF90EF90BF90AF909F908F9008954E
:101B7000695CDECFCF92DF92EF92FF920F931F93BB
:101B8000CF93DF936B01770FEE08FF08F7FE1BC0C2
:101B9000EC016DE20E94C7068C0144275527BA016B
:101BA0004C195D096E097F092AE0CE010E946E0D75
:101BB000800F911FDF91CF911F910F91FF90EF90B8
:101BC000DF90CF9008952AE0B701A601DF91CF9171
:101BD0001F910F91FF90EF90DF90CF900C946E0DBE
:101BE0000F931F93CF93DF93EC010E94BA0D8C01EA
:101BF0006AE571E0CE010E945F0D800F911FDF91B9
:101C0000CF911F910F9108952F923F924F925F9223
:101C10006F927F928F929F92AF92BF92CF92DF92FC
:101C2000EF92FF921F93CF93DF93EC016A017B0148
:101C3000722EAB019601CB01B6010E943A216DE5EF
:101C400071E0811126C046015701E894B7F82FEFE3
:101C50003FEF4FE75FE7C501B4010E943A218111D0
:101C60000CC02FEF3FEF4FE75FE7C501B4010E94C3
:101C7000231F61E671E0181664F02FEF3FEF4FE786
:101C80005FE4C701B6010E9482201816B4F465E62D
:101C900071E0CE01DF91CF911F91FF90EF90DF9027
:101CA000CF90BF90AF909F908F907F906F905F90FC
:101CB0004F903F902F900C945F0D2FEF3FEF4FE729
:101CC0005FECC701B6010E94231F87FDE0CF20E033
:101CD00030E0A901C701B6010E94231F312C212C3D
:101CE00087FF09C06DE2CE010E94C7061C01F7FA0A
:101CF000F094F7F8F09410E060E070E080E09FE38B
:101D0000711641F020E030E040E251E40E94281FCB
:101D10001F5FF6CFA70196010E94B71E2B013C0161
:101D20000E94A11F4B015C012AE0BC01A401CE016D
:101D30000E946E0D7C01E20CF31C1123C1F1C50160
:101D4000B4010E94D01F9B01AC01C301B2010E94EB
:101D5000B61E4B015C016EE2CE010E94C706E80E82
:101D6000F91E115020F120E030E040E251E4C501BD
:101D7000B4010E9487202B013C010E94A11F4B014E
:101D8000B12CA12C2AE0B501A401CE010E946E0D58
:101D9000E80EF91EC501B4010E94D01F9B01AC01E1
:101DA000C301B2010E94B61E4B015C01DACFC7012C
:101DB000DF91CF911F91FF90EF90DF90CF90BF9078
:101DC000AF909F908F907F906F905F904F903F90DB
:101DD0002F9008952F923F924F925F926F927F9231
:101DE0008F929F92AF92BF92CF92DF92EF92FF922B
:101DF0000F931F93CF93DF93CDB7DEB72D970FB619
:101E0000F894DEBF0FBECDBF8E010F5F1F4F8DE078
:101E1000F80111928A95E9F760911D0170911E01F8
:101E2000072E000C880B990B0E94D21F4B015C01FE
:101E300060911F0170912001072E000C880B990BF7
:101E40000E94D21F6B017C018FED482E512C612C1A
:101E5000712C20E030E040E050E4C501B4010E9464
:101E600082201816ECF520E030E04AEF52E4C5017C
:101E7000B4010E94231F87FF33C020E030E040E41C
:101E800051E4C701B6010E94822018164CF520E0EB
:101E900030E044E752E4C701B6010E94231F87FFE8
:101EA0001FC00E94E51DA30192010E94531E6053B2
:101EB0007109810991090E94D21F4B015C010E94A6
:101EC000E51D25E930E040E050E00E94531E6652D7
:101ED0007109810991090E94D21F6B017C01B9CF60
:101EE0000E94E51D1B012C0166E07BE086E097E087
:101EF0000E94CE0622E0B501A40186E097E00E9490
:101F0000040E61E07BE086E097E00E94CE0622E0CE
:101F1000B701A60186E097E00E94040E6AE571E031
:101F200086E097E00E945F0D70900507FFE07F1646
:101F300071F189829A82AB82BC82CD82DE82EF828D
:101F4000F886C201B10122E030E040E050E00E949A
:101F5000531E6D5F7F4F8F4F9F4F0E94D21F20E017
:101F600030E040E251E40E94281F6A877B878C871B
:101F70009D878DE0879DD0011124AE5BB94FF8019C
:101F800001900D928A95E1F77394709205072D9652
:101F90000FB6F894DEBF0FBECDBFDF91CF911F917A
:101FA0000F91FF90EF90DF90CF90BF90AF909F90F8
:101FB0008F907F906F905F904F903F902F900895FB
:101FC000CF93DF93D0E0C0E0809124018C171D06F1
:101FD00079F074F0809105078F3020F40E94EA0EAA
:101FE0002196F2CF80917D018F5F80937D01F8CFA4
:101FF0008F5F80932401DF91CF9108951F920F92FC
:102000000FB60F9211248F939F938091E1009091CE
:10201000E100937F9093E10083FF0FC01092E900ED
:1020200091E09093EB001092EC0092E39093ED001E
:102030001092410298E09093F00082FF22C093E05A
:102040009093E9009091F200992319F09AE390930C
:10205000E80090917601992341F09091760191509A
:1020600090937601911101C05D9A9091400299235D
:1020700041F090914002915090934002911101C023
:10208000289A84FF18C08091E2008E7E8160809340
:10209000E2008091E1008F7E8093E10080917701E2
:1020A0008E7E8061809377019F918F910F900FBEFC
:1020B0000F901F90189580FFF7CF8091E2008E7EE1
:1020C00080618093E2008091E1008E7E8093E10048
:1020D000809177018E7E8160E5CF1F920F920FB6BF
:1020E0000F921124CF92DF92EF92FF920F931F93E2
:1020F0002F933F934F935F936F937F938F939F9310
:10210000AF93BF93EF93FF93CF93DF93CDB7DEB73A
:102110006C97DEBFCDBF1092E9008091E80083FF8D
:1021200025C068E0CE0145960E94BA0682EF8093F2
:10213000E8008D8987FF39C09091E80090FFFCCFBF
:10214000982F907609F034C19E894F89588D2F8938
:10215000F88C911131C0803861F5809178018093BD
:10216000F1001092F1008EEF8093E8006C960FB6AC
:10217000F894DEBF0FBECDBFDF91CF91FF91EF91FD
:10218000BF91AF919F918F917F916F915F914F918F
:102190003F912F911F910F91FF90EF90DF90CF9083
:1021A0000F900FBE0F901F9018959EEF9093E80030
:1021B000C7CF1092F100D5CF913059F48111D3CF10
:1021C0004130510581F6809178018D7F80937801AF
:1021D000CACF933049F48111C6CF4130510519F669
:1021E000809178018260F2CF953041F48091E800CF
:1021F00080FFFCCF20682093E300B5CF963009F034
:10220000A9C00B8D1C8D22E01092E9001092740180
:1022100010927301F2122EC010927201109271018D
:102220000E9489061F8299E09983FA8291E09E8339
:1022300090EA98879AEF9987209173013091740101
:10224000275F3F4F3C832B838D831092E9001092D0
:10225000740110927301109372010093710149E0AF
:1022600050E0BE016F5F7F4F80E00E9463060E94D6
:10227000890679CF10937201009371010E942106A3
:10228000DC0112960D911C910115110509F451C143
:10229000D801ED91FC910480F581E02DBE016B5ECB
:1022A0007F4FC8010995009709F03EC1F8010085EC
:1022B0001185EACFF3E0FF120EC08F89882309F45D
:1022C00040C0823061F440E867E080E196E00E941F
:1022D000E912811148CF81E28093EB0047CF813032
:1022E00029F440E86BE084E096E0F1CF833099F781
:1022F0000E942106DC011296ED90FC908E010F5F8A
:102300001F4F6801E114F10479F0D701ED91FC91C0
:102310000680F781E02DB801C7010995080F111D4E
:10232000F701E084F184EECFD8011C92F601019010
:102330000020E9F73197BF016C197D0940E0C60123
:10234000C6CF6EEE75E0FB01449150E080E80E943C
:10235000630609CF973009F4BECF983021F481E0AD
:102360008093F10000CF993009F0FDCE837009F021
:10237000B2CFEEE2F1E081E031E096E32191222359
:1023800071F08093E9003093EB00DF0111972C91FD
:102390002093EC009093ED008F5F873079F78EE704
:1023A0008093EA001092EA008F8980934102DBCE8D
:1023B0008B8D9C8D1092E900109274011092730124
:1023C0009093720180937101898D811192C08E89E1
:1023D0009D89913A49F4813209F07DCF47E050E080
:1023E00064E071E080E0B3CF913209F074CF8332C2
:1023F00069F48F89988DB0E0A0E0809300019093FC
:102400000101A0930201B0930301ADCE803269F4C3
:102410008091E80082FFFCCF67E084E091E00E94B9
:10242000BA068BEF8093E8009ECE823209F09BCEF5
:102430008F8980930B01EEEFFFE7859194918B3F9D
:102440009C4D51F1E0E0F8E080910401909105018C
:10245000A0910601B0910701803B9440A105B10510
:10246000F1F480910B0180FD1AC0EE3F8AE0F8077D
:1024700089F587E797E79183808380916000809357
:10248000750188E19BE00FB6F894A89580936000F1
:102490000FBE9093600067CEEEEFFAE0D5CF80815B
:1024A00091818737974709F05ECEA89580916000AB
:1024B0008861809360008091750180936000EE3F99
:1024C0002AE0F20789F08091FE0A9091FF0A918339
:1024D000808349CE808191818737980751F290930C
:1024E000FF0A8093FE0AC5CF1092FF0A1092FE0ADF
:1024F0003ACE0E942106DC0112960D911C91011525
:10250000110509F4E8CED801ED91FC910190F0811C
:10251000E02DBE016B5E7F4FC8010995811123CE6E
:10252000F80100851185EBCF181619060CF41BCEA7
:10253000D2CEF1E0FF12BECE62EF75E004CF1F9263
:102540000F920FB60F9211242F933F938F939F9367
:10255000AF93BF938091790190917A01A0917B0113
:10256000B0917C0130916C0123E0230F2D3758F599
:102570000196A11DB11D20936C0180937901909368
:102580007A01A0937B01B0937C0180916D019091C1
:102590006E01A0916F01B09170010196A11DB11D56
:1025A00080936D0190936E01A0936F01B0937001C1
:1025B000BF91AF919F918F913F912F910F900FBE3F
:1025C0000F901F90189526E8230F0296A11DB11DAC
:1025D000D2CFEF92FF920F931F93CF93DF93F82EFA
:1025E000192FE62E042F81E0860F880F0E943506F2
:1025F00083E00E943506CF2DD12FEC0EFD2EF11C6D
:10260000CE15DF05B9F007FF13C0FE0184910E94CB
:102610003506182F80E00E9435068123219681110E
:10262000EFCFDF91CF911F910F91FF90EF90089521
:102630008881EDCF81E0F5CF0F931F93CF93DF9388
:102640008C0181E090E00E945B0D80FF32C08AE047
:1026500090E00E945B0D9FEF980F9E3F50F522E3A4
:1026600030E0D80150963C932E931F9728E330E03A
:1026700052963C932E935197CBE0D0E0D801ED9148
:10268000FC910190F081E02D682FC8010995CE01E1
:102690000E945B0D2196C131D10581F780E00E9437
:1026A000D70588EE93E0DF91CF911F910F910C94A5
:1026B0007F08DF91CF911F910F91089504970C949B
:1026C0001C13E6E0F7E01382128288EE93E0A0E0AC
:1026D000B0E084839583A683B78388E391E09183F8
:1026E00080838FEF9FEF95878487E6E5F7E013827D
:1026F00012821186128680E18387108617821586E2
:102700008AE491E09183808388E591E095838483D6
:10271000108A1786128A118A81E0838B148A858B2E
:10272000168A0895CF93DF93CDB7DEB7A1970FB682
:10273000F894DEBF0FBECDBF789484B5826084BDAF
:1027400084B5816084BD85B5826085BD85B58160B5
:1027500085BD80916E00816080936E001092810033
:1027600080918100826080938100809181008160EE
:1027700080938100809180008160809380008091AF
:10278000910082608093910080919100816080939C
:102790009100809190008160809390008091C100B1
:1027A00084608093C1008091C10082608093C100E9
:1027B0008091C10081608093C1008091C3008160DD
:1027C0008093C3008091C00082608093C00080919C
:1027D000C20081608093C20080917A0084608093FF
:1027E0007A0080917A00826080937A0080917A00EA
:1027F000816080937A0080917A00806880937A006B
:102800001092410210927801109277018091D700C6
:1028100081608093D70080EA8093D80089B5806179
:1028200089BD89B5826089BD09B400FEFDCF61E034
:1028300070E080E090E00E94C5078091D8008F7C16
:1028400080618093D8008091E000807F8093E000D9
:102850008091E1008E7E8093E1008DE08093E20024
:10286000559A209A81EC80937C0085B1806F85B960
:1028700084B1877E84B984B1876E84B95E9A5F988B
:102880008AB1806D8AB9769A6E9881B3806F81BB68
:10289000899880B38D7080BB80E58CBD81E08DBD53
:1028A00085E090E00E947F085F9A85E090E00E94BA
:1028B0007F085E985C98E8ECF6E085ED96E0249160
:1028C0002EBD00000DB407FEFDCF31968E179F0779
:1028D000B1F75C9A81E88093640080916500816023
:1028E0008093650080E00E94D7050E94840887FFDE
:1028F00015C05C9885EA8EBD00000DB407FEFDCFC3
:102900005C9A2E982F982D98809164008062809315
:10291000640081E083BF889513BEFCCF0E948408C9
:1029200082FF48C02D980E94840884788438E1F49E
:102930000E947D0888EC90E00E947F082F9882E03A
:1029400090E00E943D1E8F3F29F06FEF82E090E003
:102950000E94451E84EF91E00E947F082F9A0E94FA
:10296000840884788438D9F30E948408847184317F
:10297000E1F40E947D0888EC90E00E947F082E9888
:1029800082E090E00E943D1E882329F060E082E012
:1029900090E00E94451E84EF91E00E947F082E9AED
:1029A0000E94840884718431D9F388EC90E00E94FD
:1029B0007F08B4CF0E947D0882E090E00E945B0D0A
:1029C000882309F4C1C03E9A3F9A81E090E00E94BA
:1029D0005B0D082F0470502E81FF12C001112E983C
:1029E00001EF1FEF88E0A82EB12C9CE6E92EF12C18
:1029F0000E94840886FFABC02E9A2F9A0E947D0801
:102A000082E390E00E947F080E9484088111F8CF41
:102A10008FEF9FEF909313078093120780913202FC
:102A2000823089F004E0809FF0011124E65DFD4FC3
:102A30002AEE36E03183208395E0928394E09383FD
:102A40008F5F8093320280912702823089F014E0F8
:102A5000819FF0011124E15EFD4F2FED36E03183BF
:102A600020839AE0928394E093838F5F8093270280
:102A700080912702823081F024E0829FF0011124AE
:102A8000E15EFD4F25ED36E03183208399E09283AE
:102A900013828F5F80932702809164008E7F8093E2
:102AA000640080917A00806480937A0080917A003B
:102AB00086FDFCCF00917800109179000E94A0075C
:102AC000AB01BC01C801B0E0A0E0DC019927882778
:102AD0008C019D01040F151F261F371FC901B80166
:102AE00020916400216020936400611571058105C7
:102AF000910511F00E94341E80E18093610780E00F
:102B00000E94D7050E94E00F8FB7F8944091790199
:102B100050917A0160917B0170917C018FBF80910F
:102B20006207142F181B812F90916307992309F4D2
:102B3000ADC0109364071092630780E090E0892B8A
:102B400019F30E940000E0CF3E983F983ECF5520F9
:102B500029F00430110511F42E9A2F9881E00E947B
:102B6000D705980117FF04C022273327201B310BFC
:102B700027703327C80117FD0796B3E09595879511
:102B8000BA95E1F717FF05C00197A501421B530B4A
:102B90009A01BC017695762F6627779567956E5BCF
:102BA0007D4FB0E0A0E01501221A330A8E3F5FEF9F
:102BB000950709F446C048E550E0FD01E059F94F9A
:102BC0004F013B01F0E86F0E711C8F3F9807C9F071
:102BD000F401E41BF50B44906701C41AD50AC60E34
:102BE000D71EE42DF0E0022E02C0EE0FFF1F0A9464
:102BF000E2F7FF87EE87F6014080FE854F2AF60157
:102C0000408221153105C9F0F401E41BF50B449015
:102C10006701C41AD50AC60CD71CE42DF0E0022CBB
:102C200002C0F595E7950A94E2F7FF87EE87F60173
:102C30004080FE854F2AF60140824150510909F03B
:102C4000C4CF0196A85ABF4F60587F4FA03BB10533
:102C500009F0ACCF80E00E94D7058FE090E00E94A1
:102C60007F080F5F1F4F0931110509F0C1CE5520B4
:102C700011F02F9A2D9880E991E00E947F080E9420
:102C80007D0886E597E00E941C13BACE90916107FB
:102C9000191748F48F5F891708F04FCF81E083BF81
:102CA000889513BE4ACF81E0809363074093620703
:102CB00080915D0790915E07019690935E078093E7
:102CC0005D0780915F07809360070E94840880936E
:102CD0005F07809133028111B4C00E94C40501E5F1
:102CE00010E0EEE1EE2EF12C41E0B701C8010E94A8
:102CF0008C082FEFE21AF20A30E4E316F104A1F790
:102D00000F5F1F4F0038110561F710E000E041E050
:102D1000B8018FE790E00E948C080F5F1F4F0F31C2
:102D20001105A9F7D12CC12CF12CE12C70E8A72EAC
:102D3000B12C10E000E0F80163E0F595E7956A95A5
:102D4000E1F7EC0DFD1DEB5EF74FE491C8018770D4
:102D50009927A50102C0559547958A95E2F7CA01C2
:102D6000F0E0E423F923EF2B29F041E0B701C8019B
:102D70000E948C080F5F1F4F08351105E1F65FEFC9
:102D8000E51AF50A8BE0C80ED11C90E4E916F104AF
:102D900081F6D12CC12CF12CE12C50E8A52EB12CC0
:102DA00010E000E0F80143E0F595E7954A95E1F77A
:102DB000EC0DFD1DE55AF84FE491C8018770992785
:102DC000D50102C0B595A7958A95E2F7CD01F0E04F
:102DD000EA23F923EF2B39F041E0B701C8018F5AFC
:102DE0009F4F0E948C080F5F1F4F00331105D1F6D3
:102DF000BFEFEB1AFB0AE6E0CE0ED11CFFE1EF16A7
:102E0000F10471F61092690711E010936A0785E6E4
:102E100090E09093660780936507F0926807E092D0
:102E2000670766E577E086E597E00E94CE06109397
:102E3000690710926A0761E08AE292E00E94810AC3
:102E4000EFC5909129029111EFC5813009F0ECC5D1
:102E500084E00E94B9058823C9F180912101811184
:102E600032C0809125019091260101969093260110
:102E700080932501809123018F5F8093230100912E
:102E80002101002351F09EEF900F923030F001307D
:102E900029F590912201891708F110922301809160
:102EA000280281111BC110E060911F017091200167
:102EB00030E020E044E050E080911D0190911E013F
:102EC0000E946C0B0BC08250823058F20E94840822
:102ED00082FF04C080912101813019F28091600746
:102EE00082FF0CC080915F0782FD08C080912101A4
:102EF000813021F480912201809323010E94840873
:102F000086FF12C080911D0190911E018D379105A1
:102F10005CF4109228028C37910509F402C10196E5
:102F200090931E0180931D010E94840885FF13C0A9
:102F300080911D0190911E018330910564F022E083
:102F4000209328028330910509F4EEC001979093F5
:102F50001E0180931D010E94840887FF13C0809189
:102F60001F01909120018D30910564F023E02093A2
:102F700028028D30910509F4DAC001979093200161
:102F800080931F010E94840884FF13C080911F0159
:102F9000909120018D33910564F421E02093280263
:102FA0008C33910509F4C6C001969093200180935B
:102FB0001F0180910507811102C00E94E00F0E944D
:102FC000C405E0901F01F0902001C0901D01D09039
:102FD0001E0121E042E0B701C6010E94AA0802E4F6
:102FE00016E0312C212C9601DD0C440B550B2A8F59
:102FF0003B8F4C8F5D8FC701FF0CAA0BBB0B8E8FD5
:103000009F8FA8A3B9A3809105078215130411F01F
:103010000CF093C00EE811E0B12CA12C80911E029F
:103020008A151B0411F00CF03EC10EE711E0F12CE3
:10303000E12C34E6432E50908D015E141F0409F0FC
:103040000CF40FC380901D0190901E01D8011196C1
:10305000CC901197D12C94012C193D0960901F013F
:10306000709020011296AC90B12CC3018A199B0973
:10307000229FB001239F700D700D1124889F900135
:10308000899F300D300D1124620F731F072E000C25
:10309000880B990B0E94D21F0E94FA2020E030E09A
:1030A00040E850E40E94231F18160CF4C2C2F80135
:1030B0008081843009F4AAC2809321018E2D5A9414
:1030C00050928D01F801851508F0C5C22381348125
:1030D00045812193319341938F5FF5CF823051F435
:1030E00010E060911F017091200130E020E04CEF72
:1030F0005FEFE2CE833051F410E060911F017091D8
:1031000020012CEF3FEF50E040E0D6CE813009F0B7
:10311000E5CE10E060911F017091200124E030E0C5
:10312000F2CF8DE790E0FCCE82E090E010CF8CE013
:1031300090E024CF8DE390E038CF1986D8012D910F
:103140003D914D915C912E873F87488B598B6A8DBD
:103150007B8D8C8D9D8D0E94D21F2E853F85488949
:1031600059890E94B61E4B015C01D80114962D911D
:103170003D914D915C9117972A8B3B8B4C8B5D8BCE
:103180006E8D7F8D88A199A10E94D21F2A893B89CB
:103190004C895D890E94B61E6B017C01A5019401DA
:1031A000C501B4010E9487202B013C01A7019601B3
:1031B000C701B6010E9487209B01AC01C301B20187
:1031C0000E94B71E0E94FA209B01AC01D8011996FB
:1031D0008D919D910D90BC91A02D8E8B9F8BA88F72
:1031E000B98FBC01CD010E94281F2B013C01AC010D
:1031F0009B01C501B4010E9487202E853F85488927
:1032000059890E94B71E4B015C01A3019201C701BD
:10321000B6010E9487202A893B894C895D890E94DA
:10322000B71E89829A82AB82BC826D837E838F8334
:1032300098872E893F89488D598D2A873B874C87EF
:103240005D872DE0FE013196D80101900D922A95FF
:10325000E1F70E949A1F6B01C501B4010E949A1FF9
:10326000CB0121E042E0B6010E94AA08D8011496E1
:103270006D917D918D919C9117970E949A1F6B0182
:10328000F80160817181828193810E949A1FCB0134
:1032900021E041E0B6010E94AA08FFEF2F1A3F0A81
:1032A000035F1F4FB0CEAE86D80118962D913D9189
:1032B0004D915C911B976D917D918D919C910E9498
:1032C000B71E6B017C01F80124853585468557853D
:1032D00064817581868197810E94B71E2B013C0114
:1032E000D80151969C905197F801C082D182E28218
:1032F000F38214964D925D926D927C92179720E026
:1033000030E040E050E4C701B6010E94231F87FD72
:103310001EC020E030E04AEF52E4C701B6010E942F
:1033200082201816A4F020E030E040E451E4C3010C
:10333000B2010E94231F87FD0AC020E030E044E76D
:1033400052E4C301B2010E9482201816BCF42091FD
:103350001E02215020931E02C801BE85B21708F03C
:103360004FC132E1FC017296DC0101900D923A9559
:10337000E1F7EE85EF5FEE874296EFCFC301B20132
:103380000E949A1F2B01C701B6010E949A1FCB0110
:1033900021E0492DB2010E94AA0822E4822E26E0F3
:1033A000922E312C212C809105078215130409F0EF
:1033B0000CF426C1D801CD90DD90ED90FC90F40185
:1033C000408051806280738020E030E040E050E433
:1033D000C301B2010E94B61E9B01AC01C701B60138
:1033E0000E94822087FF07C0FFEF2F1A3F0A2DE0BF
:1033F000820E911CD8CF20E030E040E050E4C301C1
:10340000B2010E94B71E9B01AC01C701B6010E9428
:10341000231F18164CF3D80114968D919D910D9091
:10342000BC91A02D8A8B9B8BAC8BBD8BF401C4808F
:10343000D580E680F78020E030E040E050E4C7012E
:10344000B6010E94B61E9B01AC016A897B898C89FA
:103450009D890E94822087FDC7CF20E030E040E0B8
:1034600050E4C701B6010E94B71E9B01AC016A89F6
:103470007B898C899D890E94231F18160CF4B4CF78
:10348000C301B2010E949A1F6A8B7B8B8C8B9D8B30
:103490008A899B8903978A379105D0F4C701B601C1
:1034A0000E949A1F2B01CB010D97C09788F4809141
:1034B0002101853069F00E94E51D2AE030E040E0FE
:1034C00050E00E94531E80912101672B09F45AC0DD
:1034D000D80150968C91833061F5D0901C01B4E0F6
:1034E000DB1639F1F8014480558066807780F4E07E
:1034F000DF9EC00111249C01245F3E4F7901D80159
:103500006D917D918D919C910E949A1FF70160832E
:10351000C301B2010E949A1FD70111966C931197B3
:1035200012961C921297E2E11396EC93D394D092E8
:103530001C0180911E02815080931E0298019E857D
:103540009817E8F542E1F9017296D90101900D92C0
:103550004A95E1F79F5F2E5E3F4FF2CF0E94E51D37
:1035600025E030E040E050E02C193D094E095F09AC
:103570000E94531EC60ED71EE81EF91E809121011F
:10358000C81650F490E001966C01092E000CEE086C
:10359000FF0805979CF7E2CF80918D01853009F4F3
:1035A00097CF23E0829FF0011124E258FE4FC082A2
:1035B0003A89318342828F5F80938D0189CF422D7A
:1035C000909105079150909305079401491760F475
:1035D0005DE0F9013D96D90101900D925A95E1F710
:1035E0004F5F235F3F4FF2CF209127013091280199
:1035F0002F5F3F4F30932801209327018111F4CE94
:10360000FFEFAF1ABF0A0E5E1F4F08CD80911C015D
:10361000843009F453CD24E0829FF0011124E45F4B
:10362000FE4F80826182128243828F5F80931C01F1
:1036300045CD21E042E0B501C6010E94AA08D801AB
:1036400012966C91129770E011968C9121E040E0F7
:1036500090E00E94AA08BFEFEB1AFB0A0D5F1F4F14
:10366000EACC02E416E0F12CE12CDD24D39492E0C4
:10367000C92E809105078E151F0409F00CF4A1C016
:1036800060911D0170911E01072E000C880B990B93
:103690000E94D21FF80120813181428153810E9412
:1036A000B61E2B013C0160911F0170912001072E75
:1036B000000C880B990B0E94D21FD80114962D91F3
:1036C0003D914D915C9117970E94B61E4B015C0194
:1036D000A3019201C301B2010E9487202B013C018A
:1036E000A5019401C501B4010E9487209B01AC0192
:1036F000C301B2010E94B71E0E94FA2020E030E010
:1037000040E850E40E94231F18160CF454C0D092D5
:103710002902C092330268E177E086E097E00E94D8
:10372000CE066AE571E086E097E00E945F0D6BE0EF
:1037300077E086E097E00E94CE066AE571E086E0D9
:1037400097E00E945F0D67E077E086E097E00E94D7
:10375000CE0660911D0170911E0186E097E00E94E7
:10376000BA0D62E077E086E097E00E94CE066091B5
:103770001F017091200186E097E00E94BA0D6DEF65
:1037800076E086E097E00E94CE0660912701709176
:10379000280186E097E00E94BA0D68EF76E086E0A7
:1037A00097E00E94CE06609125017091260186E087
:1037B00097E00E94F00DBFEFEB1AFB0A035F1F4F6B
:1037C00058CF8F3058F10CE011E01F861E86809193
:1037D0001C01EE85FF858E171F0609F00CF4CDC085
:1037E000D8011296FC901297F3941296FC921297BD
:1037F00013969C919F1568F59E85815080931C01BE
:10380000F801981708F0B0C044815581668177812E
:1038100041935193619371939F5FF3CF80917D01A9
:10382000882389F210E000E080917D018017110665
:1038300051F24CF20E94EA0E80917D0181508093FA
:103840007D01809105078F3008F0BDCF0F5F1F4FBE
:10385000EBCF82E4C82E86E0D82E312C212C8F2D80
:1038600090E002969C01990F440B550B2A8B3B8BE1
:103870004C8B5D8BE0900507D8018C911196BC9024
:10388000E214130409F00CF468C0682F70E090E0B3
:1038900080E00E94D21FF601208131814281538154
:1038A0000E94B61E2B013C016B2D70E090E080E081
:1038B0000E94D21FD60114962D913D914D915C919D
:1038C00017970E94B61E4B015C01A3019201C30130
:1038D000B2010E9487202B013C01A5019401C50182
:1038E000B4010E9487209B01AC01C301B2010E9478
:1038F000B71E0E94FA204B015C016A897B898C8982
:103900009D890E94D21F9B01AC01C501B4010E9498
:10391000231F1816DCF0222DEA94E0920507C60159
:103920002E1558F43DE0FC013D96DC0101900D920E
:103930003A95E1F72F5F0D96F3CF80912701909193
:10394000280101969093280180932701BFEF2B1A3D
:103950003B0AEDE0CE0ED11C8DCF6B2D70E021E047
:103960004F2D90E00E94AA082E853F852F5F3F4F84
:103970003F872E870C5F1F4F2ACF10E000E0F12C0D
:10398000E12C41E0B701C8010E948C083FEFE31A27
:10399000F30A49E0E416F104A1F70F5F1F4F003866
:1039A000110569F7FF24F394F0926B0710926907F1
:1039B000F0926A0701E010E0109366070093650734
:1039C000109368070093670764EF76E086E597E059
:1039D0000E94CE06609124016150770B86E597E046
:1039E0000E94BA0D8AE390E0909366078093650782
:1039F000109368070093670760EF76E086E597E02D
:103A00000E94CE06609127017091280186E597E01B
:103A10000E94BA0DF0926B07F092690710926A0744
:103A200080E00E94D70589C8823009F057C00E9403
:103A3000C40568E477E086E597E00E94CE066091D1
:103A400024016150770B86E597E00E94F00D60E459
:103A500077E086E597E00E94CE066091270170919D
:103A6000280186E597E00E94F00D69E377E086E59E
:103A700097E00E94CE066091270170912801072EE1
:103A8000000C880B990B0E94D21F20E030E048EC1C
:103A900052E40E9487206B017C01609125017091A6
:103AA0002601072E000C880B990B0E94D21F9B0148
:103AB000AC01C701B6010E94281FAB01BC0122E086
:103AC00086E597E00E94040E67E377E086E597E0DD
:103AD0000E94CE0660E08FE192E0B0C9843009F028
:103AE0009FCF1092050710928D0110921E02109226
:103AF0001C0180E490E090931E0180931D01A0E2E0
:103B0000B0E0B0932001A0931F0111E010932401B5
:103B1000109226011092250110922801109227017F
:103B2000109221010E94E00F10922902109333029B
:103B300077CF8F929F92AF92BF92CF92DF92EF9208
:103B4000FF92CF93DF93EC01688179818A819B8119
:103B5000611571058105910521F464E279ED8BE52C
:103B600097E02DE133EF41E050E00E94531E490100
:103B70005A019B01AC01A7EAB1E40E94721E6B01DD
:103B80007C01ACEEB4EFA50194010E94801EC60E2C
:103B9000D71EE81EF91EF7FE06C081E0C81AD1083C
:103BA000E10880E8F80AC882D982EA82FB82C7016C
:103BB000B6019F77DF91CF91FF90EF90DF90CF908C
:103BC000BF90AF909F908F9008958F929F92AF92E9
:103BD000BF92CF92DF92EF92FF9260912901709194
:103BE0002A0180912B0190912C01611571058105AD
:103BF000910521F464E279ED8BE597E02DE133EF57
:103C000041E050E00E94531E49015A019B01AC0162
:103C1000A7EAB1E40E94721E6B017C01ACEEB4EF26
:103C2000A50194010E94801EC60ED71EE81EF91E33
:103C3000F7FE06C081E0C81AD108E10880E8F80A5A
:103C4000C0922901D0922A01E0922B01F0922C011E
:103C5000C701B6019F77FF90EF90DF90CF90BF90A4
:103C6000AF909F908F9008956093290170932A01DF
:103C700080932B0190932C010895F999FECF92BD6A
:103C800081BDF89A992780B50895262FF999FECF1E
:103C90001FBA92BD81BD20BD0FB6F894FA9AF99A69
:103CA0000FBE01960895052E97FB1EF400940E9406
:103CB0006A1E57FD07D00E94851E07FC03D04EF4F4
:103CC0000C946A1E50954095309521953F4F4F4F6B
:103CD0005F4F089590958095709561957F4F8F4FB8
:103CE0009F4F08950E94A71EA59F900DB49F900D11
:103CF000A49F800D911D11240895B7FF0C94721E8E
:103D00000E94721E821B930B0895A1E21A2EAA1B19
:103D1000BB1BFD010DC0AA1FBB1FEE1FFF1FA2177B
:103D2000B307E407F50720F0A21BB30BE40BF50B78
:103D3000661F771F881F991F1A9469F76095709501
:103D4000809590959B01AC01BD01CF010895A29F84
:103D5000B001B39FC001A39F700D811D1124911D5F
:103D6000B29F700D811D1124911D08955058BB27DD
:103D7000AA270E94CE1E0C9448200E943A2038F0B8
:103D80000E94412020F039F49F3F19F426F40C944E
:103D900037200EF4E095E7FB0C943120E92F0E94C8
:103DA000592058F3BA17620773078407950720F064
:103DB00079F4A6F50C947B200EF4E0950B2EBA2F27
:103DC000A02D0B01B90190010C01CA01A001112421
:103DD000FF27591B99F0593F50F4503E68F11A16CD
:103DE000F040A22F232F342F4427585FF3CF46955E
:103DF00037952795A795F0405395C9F77EF41F1680
:103E0000BA0B620B730B840BBAF09150A1F0FF0F49
:103E1000BB1F661F771F881FC2F70EC0BA0F621F35
:103E2000731F841F48F4879577956795B795F79525
:103E30009E3F08F0B0CF9395880F08F09927EE0FBA
:103E40009795879508950E940D2008F481E00895C4
:103E50000E943C1F0C9448200E94412058F00E9470
:103E60003A2040F029F45F3F29F00C9431205111A1
:103E70000C947C200C9437200E94592068F39923DD
:103E8000B1F3552391F3951B550BBB27AA27621756
:103E90007307840738F09F5F5F4F220F331F441F63
:103EA000AA1FA9F335D00E2E3AF0E0E832D0915097
:103EB0005040E695001CCAF72BD0FE2F29D0660F84
:103EC000771F881FBB1F261737074807AB07B0E8C7
:103ED00009F0BB0B802DBF01FF2793585F4F3AF0CD
:103EE0009E3F510578F00C9431200C947C205F3F6C
:103EF000E4F3983ED4F3869577956795B795F79553
:103F00009F5FC9F7880F911D9695879597F908953A
:103F1000E1E0660F771F881FBB1F621773078407D6
:103F2000BA0720F0621B730B840BBA0BEE1F88F7E5
:103F3000E09508950E94A11F6894B1110C947C2013
:103F400008950E94612088F09F5798F0B92F992713
:103F5000B751B0F0E1F0660F771F881F991F1AF074
:103F6000BA95C9F714C0B13091F00E947B20B1E03E
:103F700008950C947B20672F782F8827B85F39F03D
:103F8000B93FCCF3869577956795B395D9F73EF40D
:103F900090958095709561957F4F8F4F9F4F0895B5
:103FA000E89409C097FB3EF49095809570956195D3
:103FB0007F4F8F4F9F4F9923A9F0F92F96E9BB2789
:103FC0009395F695879577956795B795F111F8CF05
:103FD000FAF4BB0F11F460FF1BC06F5F7F4F8F4F70
:103FE0009F4F16C0882311F096E911C0772321F066
:103FF0009EE8872F762F05C0662371F096E8862FFE
:1040000070E060E02AF09A95660F771F881FDAF754
:10401000880F9695879597F90895990F0008550F81
:10402000AA0BE0E8FEEF16161706E807F907C0F03E
:1040300012161306E407F50798F0621B730B840B46
:10404000950B39F40A2661F0232B242B252B21F420
:1040500008950A2609F4A140A6958FEF811D811DC0
:10406000089597F99F6780E870E060E008959FEFFA
:1040700080EC089500240A941616170618060906FF
:10408000089500240A9412161306140605060895CE
:10409000092E0394000C11F4882352F0BB0F40F456
:1040A000BF2B11F460FF04C06F5F7F4F8F4F9F4F96
:1040B000089557FD9058440F551F59F05F3F71F018
:1040C0004795880F97FB991F61F09F3F79F087957F
:1040D0000895121613061406551FF2CF4695F1DF08
:1040E00008C0161617061806991FF1CF8695710598
:1040F000610508940895E894BB2766277727CB01CC
:1041000097F908950E940D2008F48FEF08950E94FA
:104110009A200C9448200E943A2038F00E944120B6
:1041200020F0952311F00C9431200C9437201124A9
:104130000C947C200E94592070F3959FC1F3950F39
:1041400050E0551F629FF001729FBB27F00DB11D1B
:10415000639FAA27F00DB11DAA1F649F6627B00DAB
:10416000A11D661F829F2227B00DA11D621F739F94
:10417000B00DA11D621F839FA00D611D221F749FA2
:104180003327A00D611D231F849F600D211D822FE9
:10419000762F6A2F11249F5750409AF0F1F0882310
:1041A0004AF0EE0FFF1FBB1F661F771F881F91503D
:1041B0005040A9F79E3F510580F00C9431200C949B
:1041C0007C205F3FE4F3983ED4F38695779567951E
:1041D000B795F795E7959F5FC1F7FE2B880F911D67
:1041E0009695879597F9089519F416F40C9437204D
:1041F0000C943F210E946120B8F39923C9F3B6F3D0
:104200009F57550B87FF0E944D210024A0E640EAEE
:10421000900180585695979528F4805C660F771F1B
:10422000881F20F026173707480730F4621B730BEE
:10423000840B202931294A2BA69517940794202511
:1042400031254A2758F7660F771F881F20F0261759
:104250003707480730F4620B730B840B200D311DB8
:10426000411DA09581F7B901842F9158880F96952B
:10427000879508950E940D20880B990B08959F3F04
:1042800031F0915020F4879577956795B795880F11
:10429000911D9695879597F9089591505040660F16
:1042A000771F881FD2F70895EE0FFF1F0590F49136
:1042B000E02D099481E090E0F8940C945F21F8944B
:0242C000FFCF2E
:1042C200FFFFFFFF00E100000000000000000012FD
:1042D2000000001200000012000000120040002046
:1042E20000000A0A01000000000100000000C18075
:1042F20081000000000000001F07F8074007350793
:10430200860744076207000000007A09F2067E0A67
:104312007D0A1C13FCFF00005E130D0A006E616E25
:0A43220000696E66006F7666000009
:00000001FF
